{
  "contractName": "P2PPay",
  "abi": [
    {
      "inputs": [],
      "stateMutability": "nonpayable",
      "type": "constructor"
    },
    {
      "anonymous": false,
      "inputs": [
        {
          "indexed": true,
          "internalType": "address",
          "name": "payer",
          "type": "address"
        },
        {
          "indexed": true,
          "internalType": "address",
          "name": "payee",
          "type": "address"
        },
        {
          "indexed": false,
          "internalType": "uint256",
          "name": "amount",
          "type": "uint256"
        },
        {
          "indexed": false,
          "internalType": "bytes32",
          "name": "ref",
          "type": "bytes32"
        }
      ],
      "name": "PaymentRegistered",
      "type": "event"
    },
    {
      "anonymous": false,
      "inputs": [
        {
          "indexed": true,
          "internalType": "address",
          "name": "payee",
          "type": "address"
        },
        {
          "indexed": false,
          "internalType": "uint256",
          "name": "amount",
          "type": "uint256"
        }
      ],
      "name": "Withdrawn",
      "type": "event"
    },
    {
      "inputs": [
        {
          "internalType": "address",
          "name": "payee",
          "type": "address"
        },
        {
          "internalType": "bytes32",
          "name": "ref",
          "type": "bytes32"
        }
      ],
      "name": "payTo",
      "outputs": [],
      "stateMutability": "payable",
      "type": "function",
      "payable": true
    },
    {
      "inputs": [],
      "name": "withdraw",
      "outputs": [],
      "stateMutability": "nonpayable",
      "type": "function"
    },
    {
      "inputs": [
        {
          "internalType": "address",
          "name": "who",
          "type": "address"
        }
      ],
      "name": "balanceOf",
      "outputs": [
        {
          "internalType": "uint256",
          "name": "",
          "type": "uint256"
        }
      ],
      "stateMutability": "view",
      "type": "function",
      "constant": true
    }
  ],
  "bytecode": "0x608060405234801561001057600080fd5b50600180819055506108fd806100276000396000f3fe6080604052600436106100345760003560e01c80633ccfd60b1461003957806370a0823114610050578063f4e624651461008d575b600080fd5b34801561004557600080fd5b5061004e6100a9565b005b34801561005c57600080fd5b50610077600480360381019061007291906104e2565b6102c5565b6040516100849190610528565b60405180910390f35b6100a760048036038101906100a29190610579565b61030d565b005b6002600154036100ee576040517f08c379a00000000000000000000000000000000000000000000000000000000081526004016100e590610616565b60405180910390fd5b600260018190555060008060003373ffffffffffffffffffffffffffffffffffffffff1673ffffffffffffffffffffffffffffffffffffffff1681526020019081526020016000205490506000811161017c576040517f08c379a000000000000000000000000000000000000000000000000000000000815260040161017390610682565b60405180910390fd5b60008060003373ffffffffffffffffffffffffffffffffffffffff1673ffffffffffffffffffffffffffffffffffffffff1681526020019081526020016000208190555060003373ffffffffffffffffffffffffffffffffffffffff16826040516101e6906106d3565b60006040518083038185875af1925050503d8060008114610223576040519150601f19603f3d011682016040523d82523d6000602084013e610228565b606091505b505090508061026c576040517f08c379a000000000000000000000000000000000000000000000000000000000815260040161026390610734565b60405180910390fd5b3373ffffffffffffffffffffffffffffffffffffffff167f7084f5476618d8e60b11ef0d7d3f06914655adb8793e28ff7f018d4c76d505d5836040516102b29190610528565b60405180910390a2505060018081905550565b60008060008373ffffffffffffffffffffffffffffffffffffffff1673ffffffffffffffffffffffffffffffffffffffff168152602001908152602001600020549050919050565b600073ffffffffffffffffffffffffffffffffffffffff168273ffffffffffffffffffffffffffffffffffffffff160361037c576040517f08c379a0000000000000000000000000000000000000000000000000000000008152600401610373906107a0565b60405180910390fd5b600034116103bf576040517f08c379a00000000000000000000000000000000000000000000000000000000081526004016103b69061080c565b60405180910390fd5b346000808473ffffffffffffffffffffffffffffffffffffffff1673ffffffffffffffffffffffffffffffffffffffff168152602001908152602001600020600082825461040d919061085b565b925050819055508173ffffffffffffffffffffffffffffffffffffffff163373ffffffffffffffffffffffffffffffffffffffff167f48e8c6a2660ffa97ef3282ba4053785fbfd93c6be5a5642227b4bdd43ee069b1348460405161047392919061089e565b60405180910390a35050565b600080fd5b600073ffffffffffffffffffffffffffffffffffffffff82169050919050565b60006104af82610484565b9050919050565b6104bf816104a4565b81146104ca57600080fd5b50565b6000813590506104dc816104b6565b92915050565b6000602082840312156104f8576104f761047f565b5b6000610506848285016104cd565b91505092915050565b6000819050919050565b6105228161050f565b82525050565b600060208201905061053d6000830184610519565b92915050565b6000819050919050565b61055681610543565b811461056157600080fd5b50565b6000813590506105738161054d565b92915050565b600080604083850312156105905761058f61047f565b5b600061059e858286016104cd565b92505060206105af85828601610564565b9150509250929050565b600082825260208201905092915050565b7f7265656e7472616e742063616c6c000000000000000000000000000000000000600082015250565b6000610600600e836105b9565b915061060b826105ca565b602082019050919050565b6000602082019050818103600083015261062f816105f3565b9050919050565b7f6e6f2066756e6473000000000000000000000000000000000000000000000000600082015250565b600061066c6008836105b9565b915061067782610636565b602082019050919050565b6000602082019050818103600083015261069b8161065f565b9050919050565b600081905092915050565b50565b60006106bd6000836106a2565b91506106c8826106ad565b600082019050919050565b60006106de826106b0565b9150819050919050565b7f7472616e73666572206661696c65640000000000000000000000000000000000600082015250565b600061071e600f836105b9565b9150610729826106e8565b602082019050919050565b6000602082019050818103600083015261074d81610711565b9050919050565b7f696e76616c696420706179656500000000000000000000000000000000000000600082015250565b600061078a600d836105b9565b915061079582610754565b602082019050919050565b600060208201905081810360008301526107b98161077d565b9050919050565b7f6e6f2076616c7565000000000000000000000000000000000000000000000000600082015250565b60006107f66008836105b9565b9150610801826107c0565b602082019050919050565b60006020820190508181036000830152610825816107e9565b9050919050565b7f4e487b7100000000000000000000000000000000000000000000000000000000600052601160045260246000fd5b60006108668261050f565b91506108718361050f565b92508282019050808211156108895761088861082c565b5b92915050565b61089881610543565b82525050565b60006040820190506108b36000830185610519565b6108c0602083018461088f565b939250505056fea26469706673582212209480f8abaa0fab1d8e0b892c3e1ea16f49101051c2f7b41a64fbf32c25726c1764736f6c63430008110033",
  "immutableReferences": {},
  "source": "// SPDX-License-Identifier: MIT\r\npragma solidity ^0.8.17;\r\n\r\n/**\r\n * @title P2PPay\r\n * @dev Simple pull-payment P2P contract: payers credit payees, payees withdraw.\r\n * Includes a lightweight ReentrancyGuard implementation to avoid external imports.\r\n */\r\ncontract P2PPay {\r\n    mapping(address => uint256) private balances;\r\n\r\n    event PaymentRegistered(address indexed payer, address indexed payee, uint256 amount, bytes32 ref);\r\n    event Withdrawn(address indexed payee, uint256 amount);\r\n\r\n    // Minimal ReentrancyGuard\r\n    uint256 private constant _NOT_ENTERED = 1;\r\n    uint256 private constant _ENTERED = 2;\r\n    uint256 private _status;\r\n\r\n    constructor() {\r\n        _status = _NOT_ENTERED;\r\n    }\r\n\r\n    modifier nonReentrant() {\r\n        require(_status != _ENTERED, \"reentrant call\");\r\n        _status = _ENTERED;\r\n        _;\r\n        _status = _NOT_ENTERED;\r\n    }\r\n\r\n    /// @notice Payer credits `payee` with `msg.value` and optional reference\r\n    function payTo(address payee, bytes32 ref) external payable {\r\n        require(payee != address(0), \"invalid payee\");\r\n        require(msg.value > 0, \"no value\");\r\n        balances[payee] += msg.value;\r\n        emit PaymentRegistered(msg.sender, payee, msg.value, ref);\r\n    }\r\n\r\n    /// @notice Payee withdraws their accumulated balance\r\n    function withdraw() external nonReentrant {\r\n        uint256 amt = balances[msg.sender];\r\n        require(amt > 0, \"no funds\");\r\n        balances[msg.sender] = 0;\r\n        (bool ok, ) = msg.sender.call{value: amt}(\"\");\r\n        require(ok, \"transfer failed\");\r\n        emit Withdrawn(msg.sender, amt);\r\n    }\r\n\r\n    function balanceOf(address who) external view returns (uint256) {\r\n        return balances[who];\r\n    }\r\n}\r\n",
  "sourcePath": "C:\\Users\\Jonas\\OneDrive\\Escritorio\\Proyecto de inv OP\\contracts\\P2PPay.sol",
  "compiler": {
    "name": "solc",
    "version": "0.8.17+commit.8df45f5f.Emscripten.clang"
  },
  "schemaVersion": "3.4.16",
  "updatedAt": "2025-12-15T04:51:41.438Z",
  "networkType": "ethereum",
  "devdoc": {
    "details": "Simple pull-payment P2P contract: payers credit payees, payees withdraw. Includes a lightweight ReentrancyGuard implementation to avoid external imports.",
    "kind": "dev",
    "methods": {},
    "title": "P2PPay",
    "version": 1
  },
  "userdoc": {
    "kind": "user",
    "methods": {
      "payTo(address,bytes32)": {
        "notice": "Payer credits `payee` with `msg.value` and optional reference"
      },
      "withdraw()": {
        "notice": "Payee withdraws their accumulated balance"
      }
    },
    "version": 1
  }
}